:020000040800F2
:1000000030110024390300081919000809180008E4
:100010001119000841040008A11C0008000000009C
:100020000000000000000000000000005919000856
:100030004904000800000000511900086119000877
:100040005303000853030008530300085303000838
:100050005303000853030008530300085303000828
:100060005303000853030008530300085303000818
:100070005303000853030008530300085303000808
:1000800053030008530300085303000853030008F8
:1000900053030008530300085303000853030008E8
:1000A00053030008530300085303000853030008D8
:1000B00053030008530300085303000853030008C8
:1000C00053030008530300085303000853030008B8
:1000D00053030008530300085303000853030008A8
:1000E00053030008530300080000000053030008F6
:1000F0005303000853030008530300085303000888
:100100005303000853030008530300085303000877
:100110005303000853030008411B0008511B00084B
:100120005303000853030008530300085303000857
:100130005303000853030008530300085303000847
:1001400000000000000000000000000000000000AF
:100150005303000853030008530300085303000827
:100160005303000853030008530300085303000817
:100170005303000853030008530300085303000807
:1001800053030008530300085303000853030008F7
:1001900053030008530300085303000853030008E7
:1001A00053030008530300085303000853030008D7
:1001B00053030008530300085303000853030008C7
:1001C00053030008530300085303000853030008B7
:1001D00053030008530300085303000853030008A7
:1001E0005303000853030008530300085303000897
:1001F0005303000853030008530300085303000887
:100200005303000853030008530300085303000876
:100210005303000853030008530300085303000866
:1002200053030008530300085303000800000000B4
:1002300053030008530300080000000053030008A4
:100240005303000853030008530300085303000836
:100250005303000853030008530300085303000826
:100260005303000853030008530300085303000816
:100270005303000853030008530300080000000064
:100280005303000853030008530300080000000054
:10029000000000005303000800F002F800F03CF8F2
:1002A0000AA090E8000C82448344AAF10107DA45D1
:1002B00001D100F031F8AFF2090EBAE80F0013F0E7
:1002C000010F18BFFB1A43F001031847201B000061
:1002D000401B0000103A24BF78C878C1FAD85207F2
:1002E00024BF30C830C144BF04680C6070470000B0
:1002F0000023002400250026103A28BF78C1FBD82F
:10030000520728BF30C148BF0B6070471FB501F0CE
:1003100058FD1FBD10B510BD00F058F81146FFF78D
:10032000F5FF01F0FDFC00F076F803B4FFF7F2FFF3
:1003300003BC00F07DF800000948804709480047E9
:10034000FEE7FEE7FEE7FEE7FEE7FEE7FEE7FEE785
:10035000FEE7FEE704480549054A064B70470000E2
:10036000711A00089902000830010024301100249D
:1003700030090024300900244FF0000200B5134674
:1003800094469646203922BFA0E80C50A0E80C50B5
:10039000B1F12001BFF4F7AF090728BFA0E80C5066
:1003A00048BF0CC05DF804EB890028BF40F8042B5F
:1003B00008BF704748BF20F8022B11F0804F18BFCC
:1003C00000F8012B7047704770477047754600F082
:1003D0002BF8AE4605006946534620F007008546D7
:1003E00018B020B5FFF7B6FFBDE820404FF000067B
:1003F0004FF000074FF000084FF0000BAC46ACE8A0
:10040000C009ACE8C009ACE8C009ACE8C00921F0FB
:1004100007018D46704710B50446AFF300802046B3
:10042000BDE81040FFF781BF00487047100000246E
:1004300001491820ABBEFEE726000200704700000D
:10044000FEE7000000000000704700000000000010
:10045000EFF3108072B600BFFEE70000000000005E
:10046000B0B5CB070FD14FF0010C4FF0000EBEF12D
:10047000000F06D000684161816821F01801114326
:1004800081606046B0BD1F233BB1013B03F01F04F8
:1004900021FA04F4E407F7D001E04FF0FF334FEA0C
:1004A000F205032DDFD84FF0000C4FF0010EDFE80E
:1004B00005F00203101DDAE74FF0000E4FF0000CBC
:1004C0000F2B88BF4FF0010C102B38BF4FF0010EDF
:1004D000CDE74FF0000E4FF0000C072B88BF4FF018
:1004E000010C082B38BF4FF0010EC0E74FF0000E93
:1004F0004FF0000C062B88BF4FF0010C072B38BFC4
:100500004FF0010EB3E7000010B5A8B10446407FDC
:1005100020B900202077204600F032F802206077D2
:10052000207958B1D4E902122046FFF799FF00283C
:100530001CBF012010BD0BE0012010BD206841F65A
:10054000B751C0F2C1414161816821F01801816059
:10055000607908B1206901E04FF0FF302168D4E9EB
:1005600005230861886820F060001043886088686F
:1005700020F080001843886001206077002010BDC3
:1005800081B044F2E0410068C5F6020101F5E46281
:10059000904201D001B07047086840F40020086024
:1005A000086800F400200090009801B07047000037
:1005B0002DE9F04F83B00C68002C00F0C68000F1EC
:1005C000264242F2004702F1FF72C5F602074FEAE7
:1005D000B22201920A22B84208BF09220025002750
:1005E0004FF0010A009209E00C68043734FA0AF26D
:1005F0000AF1010A05F1020500F0A780AAF101093C
:10060000012202FA09FE14EA0E08EDD0D1F804B076
:100610000BF00304A4F1010CBCF1010F11D803226B
:100620008668AA40CB6826EA0202AB401A43826081
:10063000CBF30013426822EA0E0203FA09F31A43CD
:100640004260032C1ED00323C268AB40022C22EA76
:1006500003028B6803FA05F342EA0302C26011D178
:100660006FF0030207F01C0602EA59020F2302444E
:1006700003FA06F4D2F820C00B692CEA0404B34054
:100680002343136203230268AB404E689A4306F08B
:100690000303AB4016F4403F42EA03020260A3D0DA
:1006A00044F2F44340F2084EC5F60203C5F6000ECC
:1006B0001A6842F002021A601A6807F00C0302F08E
:1006C00002020292029A29F00302019C009E092C68
:1006D00038BF26460F2452F80EC09C402CEA040472
:1006E00006FA03F34FF0B04C234342F80E30DCF827
:1006F00000204B6842EA0806DC0258BF22EA0806DE
:100700009C02CCF8006040F2040CC5F6000CDCF84A
:10071000002042EA080658BF22EA08069C03CCF8EB
:100720000060DCF8802042EA080658BF22EA08068A
:10073000DB03CCF88060DCF87C2042EA080658BF76
:1007400022EA0806CCF87C604EE703B0BDE8F08FE3
:10075000002A08BF09048161704700000000000002
:1007600041F20000C5F600400068000C7047000030
:1007700040F22C10C2F200400068704700000000F8
:1007800040F2080040F22C11C2F20040C2F20041D7
:1007900000780A68104408607047000000000000FC
:1007A00080B5032000F0A8F800F062FA44F2184186
:1007B00041F6DC53C5F60201C0F600030A68096879
:1007C00001F00F01C2F30322595C9A5C01F01F0192
:1007D00002F01F02D04040F20402C2F2004220FAAE
:1007E00001F1116040F20001C2F2004108600F20E7
:1007F00000F00AF800281CBF012080BD00F058F866
:10080000002080BD00000000B0B58AB00F2842D89B
:100810000446362000222146002500F05DF83620EF
:1008200000F056F840F20C00C2F20040046044F2BE
:10083000E840C5F60200016841F01001016000685F
:1008400001A900F010000290029802A800F0A8F997
:10085000079C002C18BF012400F0F6F94DF68361C7
:10086000A040C4F21B3141F20002A0FB010140F2A2
:100870009400C2F200404FF0FF33C4F20002026065
:1008800003EB9141C0E9011540F2E731C0E90315DE
:1008900000F02AFE10B101200AB0B0BD40F2940071
:1008A000C2F2004000F074FE0AB0B0BD00000000CB
:1008B00081B044F2F440C5F60200016841F0020143
:1008C0000160006800F002000090009801B07047DD
:1008D00080B501F0E9F980BD70B514460D460646B5
:1008E00001F0F2F92946224601F01AF80146304695
:1008F00001F0F2F970BD000080B501F001FA80BD91
:10090000B0B544F60C05C5F6020529684907296803
:1009100005D401F00701081A18BF0120B0BD21F06D
:10092000070108432860FFF723FF044655F8080C29
:10093000800407D4FFF71CFF001BB0F57A7FF5D9C0
:100940000120B0BD0020B0BD2DE9F04381B00028EA
:1009500000F0F48042F200080446C5F200288946FF
:10096000D8F8000000F00F0088420ED2D8F800003E
:1009700020F00F0040EA0900C8F80000D8F8000095
:1009800000F00F00484540F0D980206844F2184735
:100990004107C5F602070AD521693A6802F07002DC
:1009A000914204D93A6822F070021143396001077C
:1009B0000AD561697A6802F07002914204D97A68B6
:1009C00022F0700211437960C1060AD5A1697A68E4
:1009D00002F4E062914204D97A6822F4E0621143A1
:1009E000796081060AD5E169BA6802F07002914225
:1009F00004D9BA6822F070021143B96081070AD5A0
:100A0000E1683A6802F00F02914204D93A6822F094
:100A10000F0211433960C0077ED1206881070AD5D3
:100A2000E1683A6802F00F02914204D23A6822F07B
:100A30000F0211433960D8F8001001F00F01494549
:100A40000DD9D8F8001021F00F0141EA0901C8F8CA
:100A50000010D8F8001001F00F0149456ED1410790
:100A60000AD521693A6802F07002914204D23A68CC
:100A700022F070021143396001070AD561697A6872
:100A800002F07002914204D27A6822F0700211439F
:100A90007960C1060AD5A1697A6802F4E0629142E0
:100AA00004D27A6822F4E0621143796080060AD5A4
:100AB000E069B96801F07001884204D2B96821F098
:100AC00070010843B86000F0D3F8396841F6DC5291
:100AD000C0F600023B68C1F3032103F00F03515C31
:100AE000D25C01F01F01C84002F01F0140F2040275
:100AF00020FA01F1C2F20042116040F2000140F21E
:100B00000C02C2F20041C2F2004208601068FFF716
:100B10007BFE01B0BDE8F083386820F47061D4E951
:100B20000102012841EA020139600BD003282BD0D1
:100B300002282ED157F8181C890307D4012001B0D0
:100B4000BDE8F08357F8181CC905F7D557F8081CFD
:100B500021F00701084347F8080CFFF709FE064695
:100B600041F2883557F8080C616800F03800B0EBA6
:100B7000C10F3FF452AFFFF7FBFD801BA842F1D934
:100B8000032001B0BDE8F08357F8181C8901D5D5C2
:100B9000DCE757F8181C4907D0D5D7E7000000005C
:100BA0003F22026044F21842C5F6020252F8083CA5
:100BB00003F007034360136803F4706383601368F2
:100BC00003F00F03C360136803F0700303615368FD
:100BD00003F070034361536803F4E0638361926838
:100BE00002F07002C26142F20000C5F2002000680B
:100BF00000F00F000860704780B500F039F844F24B
:100C0000184141F6DC53C5F60201C0F600030A683C
:100C1000096801F00F01C2F30322595C9A5C02F0EB
:100C20001F0220FA02F201F01F0040F2040122FA32
:100C300000F0C2F20041086040F20001C2F200413F
:100C40000A6080BD0000000080B5FFF7D5FF44F2C8
:100C50001C4141F6DC52C5F60201C0F600020968EB
:100C6000C1F30211515C01F01F01C84080BD0000BA
:100C700044F20041C5F602010869C0F3C20003282E
:100C80000FD002282AD070BB0868800649F2000005
:100C9000C0F2D03058BF70470968C1F3C101C840E5
:100CA00070478A6A886AC0F3051CC86ABCF1000FE5
:100CB0004B6B1DD0C3F3CC0300F00100584302F08E
:100CC0000302022A00EE100AB8EE400A12D0A2B9BE
:100CD0000868800614D49FED261A1EE041F2002019
:100CE000C0F27A00704740F60010C0F23D00704735
:100CF000002070479FED1D1A0FE09FED1B1A0CE0BE
:100D0000086849F20002C0F2D032C0F3C10022FAF2
:100D100000F001EE100AB8EE411A086B9FED153A8B
:100D20006FF35F2002EE100A086BC0F34620B8EEA6
:100D3000422A013000EE032A00EE10CAB7EE003A54
:100D4000B8EE400A81EE000A32EE031A20EE010AE4
:100D500001EE100AB8EE411A80EE010ABCEEC00A9C
:100D600010EE100A704700BF0024744A0024F44AB1
:100D70000024744C000000392DE9F04381B0F8B133
:100D80008046007844F20049C007C5F602095AD0EF
:100D9000D9F8100000F03801D9F82800102905D042
:100DA00018290FD100F0030002280BD1D9F8000058
:100DB000800344D5D8F80400002840D101272FE053
:100DC000012718E3D8F804402CB1B4F5A02F0DD0BA
:100DD000B4F5803F10D0D9F8000020F48030C9F875
:100DE0000000D9F8000020F4802009E0D9F80000C4
:100DF00040F48020C9F80000D9F8000040F48030A9
:100E0000C9F80000FFF7B4FC0546A4B1D9F800000A
:100E1000800314D4FFF7ACFC401B6428F6D90327E9
:100E20000020002800F0E7820DE000BFFFF7A0FCE3
:100E3000401B6428F3D8D9F800008003F6D40120C1
:100E4000002800F0D88298F80000800740F18480E4
:100E5000D9F8100010F03801D9F828001CD0182952
:100E600008BF5FEA807017D0D8F80C00D9F80010DE
:100E7000002847D021F019010843C9F80000FFF706
:100E800077FC0546D9F8000040072AD4FFF770FC2C
:100E9000401B0228F6D91EE0D9F80000400704D50F
:100EA000D8F80C00002800F09681D9F80000D8F896
:100EB0000C1020F019000843C9F80000FFF758FC97
:100EC000054600BFD9F8000040070AD4FFF750FCE0
:100ED000401B0228F6D903270024002C00F08B8247
:100EE0003AE0FFF73DFC41F20301884223D8D8F8ED
:100EF0001000D9F80410402821F47C3124D141F4A9
:100F0000003023E021F00100C9F80000FFF730FCB9
:100F100005460126D9F8000010F0040086EA900486
:100F200017D0FFF725FC401B0328F3D30327002C21
:100F300000F0618210E0D9F80400D8F8101020F019
:100F4000FE4040EA016001E041EA0030C9F80400D7
:100F50000124002C00F04F8298F80000C00674D5E0
:100F6000D9F8100000F03801D9F82800082905D078
:100F700018291CD100F00300012818D1D9F800006D
:100F8000C00503D5D8F81C00802859D1FFF7E8FB2D
:100F900041F20301884222D8D8F82000D9F8041081
:100FA000202821F0F84142D141F0804041E0D8F8BA
:100FB0001C000028D9F8000020D040F08000C9F8BB
:100FC0000000FFF7D5FB0546D9F80000C005DDD4C9
:100FD000FFF7CEFB401B0228F6D9032731E0D9F8F2
:100FE0000C00D8F8201020F07C50012440EA016069
:100FF000C9F80C00002C00F0FE8126E020F08000F3
:10100000C9F80000FFF7B4FB05460126D9F8000037
:1010100010F4807086EA10240ED0FFF7A9FB401B65
:101020000328F3D30327002C00F0E5810DE041EA0B
:101030008060C9F804000124002C00F0DC8104E089
:1010400001270024002C00F0D68198F8000000074A
:101050001CD498F80000800631D498F800004007AE
:1010600045D4D8F82440002C00F09180D9F8100025
:1010700000F03800182840F08C80012CD9F8281096
:10108000D9F8300040F0A9800127B4E1D8F8140065
:101090000028D9F874003ED040F00100C9F874006F
:1010A000FFF766FB054600BFD9F874008007D0D46F
:1010B000FFF75EFB401B0228F6D903279BE1D8F817
:1010C00018000028D9F800004DD040F48050C9F82D
:1010D0000000FFF74DFB0546D9F800008004BCD4A2
:1010E000FFF746FB401B0228F6D9032783E1D9F816
:1010F000000440F48070C9F80004FFF739FB05468E
:10110000D9F80004C0051AD4FFF732FB401B64284D
:10111000F6D903276FE120F00100C9F87400FFF74A
:1011200027FB0546032700BFD9F8740080077FF529
:1011300090AFFFF71DFB401B0228F5D95BE1D8F803
:1011400008402CB1052C00F08280012C00F0858035
:10115000D9F8700020F00100C9F87000D9F87000CB
:1011600020F004007DE020F48050C9F80000FFF773
:10117000FFFA0546032700BFD9F8000080047FF579
:101180006CAFFFF7F5FA401B0228F5D933E10027D1
:1011900031E1D9F8000020F08070C9F80000FFF7B5
:1011A000E7FA022C05464FF0030709D1D9F80000F1
:1011B000800178D5FFF7DCFA401B0228F6D91AE146
:1011C000D9F80000800140F1E780FFF7D1FA401B19
:1011D0000228F5D90FE101277EE601F00302D8F8D5
:1011E00028309A4240F0DA80C1F30511D8F82C205B
:1011F000914240F0D7800146D8F830206FF35F214C
:10120000013A914240F0D080C0F34622D8F8341021
:1012100001398A4240F0CA80C0F30642D8F838103B
:1012200001398A4240F0C480C0F30660D8F83C100F
:101230000139884240F0BE80D9F83400D8F848100F
:10124000C0F3CC00814240F0B7800027D3E0D9F84A
:10125000700040F00400C9F87000D9F8700040F048
:101260000100C9F87000FFF783FA002C054641F22F
:1012700088344FF0030711D0D9F8700080073FF58C
:10128000F0AEFFF775FA401BA042F5D9B3E000BFFE
:10129000FFF76EFA401BA04200F2AD80D9F8700053
:1012A0008007F5D4DDE608F12807D9F8280040F2D8
:1012B000F33188438ECF0843591E40EA02104FF4A1
:1012C0007E426FF35F21C9F8280002EB47204FF4FC
:1012D000FE0280B2D8F83C300844D8F8381002EB4F
:1012E00001414FF0FE4201F4FE0102EB03620844AB
:1012F00002F0FE410844C9F83000D9F82C004FF63E
:10130000F87120F00100C9F82C00D9F83400D8F8A1
:101310004820884340EAC200C9F83400D9F82C00BC
:10132000D8F8401020F00C000843C9F82C00D9F878
:101330002C00D8F8441020F002000843C9F82C0013
:10134000D9F82C0040F48030C9F82C00D9F82C00D2
:1013500040F40030C9F82C00D9F82C0040F480206B
:10136000C9F82C00D9F82C0040F00100C9F82C0075
:10137000D9F8000040F08070C9F80000FFF7F8F9D4
:1013800004460327D9F80000800109D4FFF7F0F9DB
:10139000001B0228F6D92EE000272CE001272AE0C6
:1013A000002728E0012726E0012724E0012722E08A
:1013B000012720E001271EE0D9F82C0020F00100D1
:1013C000C9F82C00FFF7D4F90546FFF7D1F9A84278
:1013D000FBD0D9F834004FF6F871D8F8482088438C
:1013E000002740EAC200C9F83400D9F82C0040F0C8
:1013F0000100C9F82C00F8B201B0BDE8F08300008C
:10140000704700000000000070470000000000006E
:101410007047000000000000B0B590F83C20012AA1
:101420004FF002025CD0012380F83C3080F83D2070
:1014300040F2004C0268C4F2010C42F48063634540
:101440005368D2F808E002BF23F470034C682343CA
:1014500041F2FF740D68C4F2000423F07003A2424D
:1014600043EA050353600BDC40F2FF73C4F2000350
:101470009A4215DCB2F1804F27D040F2004317E0CA
:1014800040F2FF33C4F201039A4216DC41F6000336
:10149000C4F200039A4218D00023C4F2010309E009
:1014A00040F60003C4F200039A420ED040F6004317
:1014B000C4F200039A4208D00CE044F20003C4F2E4
:1014C00001039A4201D0624504D12EF0800389685D
:1014D000194391600022012180F83D1080F83C20E2
:1014E0001046B0BD0000000060B310B5044690F88F
:1014F0003D0028B9002084F83C00204600F024F884
:10150000022084F83D002068211D00F029FB012005
:1015100084F8480084F83E0084F83F0084F84000D6
:1015200084F8410084F8420084F8430084F84400C1
:1015300084F8450084F8460084F8470084F83D00AC
:10154000002010BD0120704780B582B041F20041FB
:101550000068C4F20001884201D002B080BD44F2AC
:10156000E8400022C5F60200016841F02001016058
:101570000068002100F02000019001983720FFF75B
:10158000ABF93720FFF7A4F902B080BD00000000DE
:1015900090F83D1001291BD1022180F83D1001680F
:1015A00041F2FF70C4F200008142C86840F00100BF
:1015B000C8600FDC40F2FF70C4F20000814217DC0B
:1015C000B1F1804F2BD040F20040C4F2000024E083
:1015D0000120704740F2FF30C4F20100814212DC6A
:1015E00041F60000C4F20000814218D0002012E051
:1015F00040F60000C4F20000814210D040F60040E6
:10160000C4F2000009E044F20000C4F2010081428B
:1016100005D040F20040C4F2010081420BD1072204
:101620008868C0F2010202400020062A18BFB2F505
:10163000803F00D17047086840F00100086000203A
:10164000704700000000000070470000000000002C
:1016500010B5044600680169890744BFC1685FEAA4
:10166000817140D420680169490744BFC1685FEABD
:10167000417144D420680169090744BFC1685FEA29
:10168000017149D420680169C90644BFC1685FEA95
:10169000C1614DD420680169C9071CBFC1685FEAF8
:1016A000C17152D120680169090644BFC1685FEA6F
:1016B000016151D420680169C90544BFC1685FEA6E
:1016C000016150D420680169490644BFC1685FEADE
:1016D00041614FD420680169890644BFC1685FEA4F
:1016E00081614ED410BD6FF00201016101212177AB
:1016F000806980074CD02046FFF7A6FF4EE06FF0D0
:101700000401016102212177806910F4407F48D0F3
:101710002046FFF799FF4AE06FF0080101610421BC
:101720002177C069800745D02046FFF78DFF47E04D
:101730006FF01001016108212177C06910F4407F2A
:1017400041D02046FFF780FF43E06FF001010161C7
:10175000204600F049F8A5E76FF0800101612046BE
:10176000FFF752FEA6E76FF4807101612046FFF794
:1017700047FEA7E76FF040010161204600F040F806
:10178000A8E76FF0200101612046FFF741FE10BD80
:10179000204600F021F8204600F022F800202077B3
:1017A00060E7204600F018F8204600F019F8002005
:1017B00020775FE7204600F00FF8204600F010F891
:1017C000002020775EE7204600F006F8204600F073
:1017D00007F8002020775DE7704700000000000058
:1017E000704700000000000080B541F20001006871
:1017F000C4F20001884218BF80BDFEF7C1FF80BD62
:101800007047000000000000FEE70000000000003C
:1018100080B540F2700044F60041C2F20040C5F6C7
:101820000201016000218180C0E9051101210162EE
:10183000FEF76AFE002808BF80BDFEF709FE80BDE6
:1018400070B586B044F2E0400025C5F6020005956B
:10185000CDE90355CDE90155016841F2000441F09D
:10186000040101600168C5F6020401F00401009161
:101870000099016841F0100101600168002201F047
:10188000100100910099016841F080010160006839
:10189000082100F080000090009820460826FEF7FE
:1018A00057FF012001A9CDE90205204601960495C4
:1018B000FEF77EFE06B070BD10B584B040F2E000C9
:1018C00041F20041C2F2004000240394C4F200013E
:1018D000CDE90144C0E9001484604FF6FF71C16096
:1018E00080218161FFF700FE08B1FEF7B1FD40F2F3
:1018F000E00001A9C2F2004001940394FFF78CFDBF
:1019000008B1FEF7A5FD04B010BD00000000000006
:10191000FEE7000000000000FEE7000000000000FD
:1019200000F007004FF0FF3C80F00703042B28BFB6
:101930000423033838BF00200CFA03F399430CFA50
:1019400000F301FA00F022EA0301084370470000A7
:101950007047000000000000704700000000000019
:10196000704700000000000070B59CB044F61804F9
:1019700040F22C4509A84C21C5F60204C5F6000525
:10198000FEF7FAFC02200026CDE90766CDE90566E0
:10199000CDE90366CDE90166FEF7B2FF009628683F
:1019A00020F001002860286800F001000090206805
:1019B00040F440402060206800F4404000900098CF
:1019C00020688004FCD54FF6DC40CFF6FF7021582C
:1019D00041F002012150205800F0020000900098D0
:1019E00000200090206840F440402060206800F40F
:1019F00040400090286840F001002860286800F00E
:101A000001000090009800BF20688004FCD50120F0
:101A100009904FF480300A9002204FF4F072CDE923
:101A20001200CDE9152014220421CDE9172009A8C0
:101A3000149119910024CDE91A44FFF79DF9A8B932
:101A40003F20019003204FF48061CDE9020408207B
:101A500004904020CDE90500CDE9071001A804213C
:101A6000FEF772FF002804BF1CB070BDFEF7F0FC4B
:101A70004EF6885042F2000CCEF20000C5F2002C67
:101A8000016841F470010160DCF8000000F00F0013
:101A9000062806D8DCF80000072161F30300CCF823
:101AA000000044F200404EF67F52C5F60200CEF62A
:101AB000F622016841F00101016000210161036823
:101AC0001A400260DCF80020120706D5DCF800207E
:101AD000072363F30302CCF8002040F20022816167
:101AE000C161C0F20222016282620022C0F2FF12D2
:101AF000C26240F28022C0F201120263416382633B
:101B0000C16302644164026822F4802202600166BB
:101B100041F20000C5F600400068B1EB507F05D1EE
:101B200048F208100121C5F20010016044F20000E3
:101B300043F2D201C5F200200160704700000000AE
:101B400080B540F29400C2F20040FFF781FD80BDF5
:101B500080B540F2E000C2F20040FFF779FD80BDA1
:101B600010B540F6FF32C4F20002904202680FDC6A
:101B7000B0F1804F1DD040F20043C4F20003984200
:101B800017D040F60003C4F20003984211D014E0CD
:101B900040F60043C4F2000398420AD040F20043EA
:101BA000C4F20103984204D00023C4F20103984216
:101BB00003D122F070024B681A434FF6FF7343F6CD
:101BC000FF7CC4F20003C4F2010C984210DD6045B2
:101BD0001ADD44F20003C4F2010398422CD044F60B
:101BE0000003C4F20103984226D044F2004312E0FD
:101BF00040F2FF73C4F20003984211DCB0F1804F51
:101C00001AD040F2004313E00023C4F201039842CB
:101C100012D040F20043C4F2010398420CD00FE00E
:101C200040F60003C4F20003984205D040F600439A
:101C3000C4F20003984203D122F44072CB681A43E5
:101C400022F080024C696045D1F800E08B6842EADE
:101C500004020260C362C0F828E00EDD44F2000214
:101C6000C4F20102904213D044F60002C4F2010211
:101C700090420DD044F2004206E00022C4F201027C
:101C8000904205D040F20042C4F20102904201D1DC
:101C9000096901630121416110BD000000000000DD
:101CA000FEE7000000000000002848BF704700F079
:101CB0001F01012202FA01F14EF200124009CEF298
:101CC000000242F8201070474EF60C50CEF2000091
:101CD0000068C0F3022070474EF6145300F00F0264
:101CE000CEF20003B0F1FF3F1A4400F16043C8BFD9
:101CF00003F5644208011070704700000000000006
:101D00004EF60C514FF6FF03CEF200010A681A405E
:101D100060F30A2242F0806040F0FD700860704776
:101D20004EF61450CEF200000168890312D4BFF3BE
:101D30004F8FBFF36F8F0021C0F83C12BFF34F8F5E
:101D4000BFF36F8F016841F400310160BFF34F8F23
:101D5000BFF36F8F0168C90328D400210167BFF367
:101D60004F8FC16E43F6E07CC1F3C903C1F34E321D
:101D700003F1010E9B0700BF0CEA42111C46754699
:101D800044EA0106013D04F14044C0F84C62F7D139
:101D9000002AA2F10102EFD1BFF34F8F016841F495
:101DA00080310160BFF34F8FBFF36F8FFEF7F8FCF8
:101DB000FFF7DAFDFFF744FDFFF77EFDFFF728FD93
:101DC000FEE7F1EE100A4FF6FF71C0F2C03120EAD3
:101DD000010040F04070E1EE100A70470000000082
:101DE000010203040102030406070809101E00088B
:101DF0000000002410000000D4020008201E00088B
:101E00001000002420110000F00200080000000073
:101E10000090D0030090D0030100000010000000EB
:040000050800029954
:00000001FF
