:020000040800F2
:1000000050090020CD010008ED150008F513000887
:10001000E9150008D5020008E519000800000000F5
:100020000000000000000000000000004D16000865
:10003000D9020008000000001D1600085116000833
:10004000E7010008E7010008E7010008E7010008F0
:10005000E7010008E7010008E7010008E7010008E0
:10006000E7010008E7010008E7010008E7010008D0
:10007000E7010008E7010008E7010008E7010008C0
:10008000E7010008E7010008E7010008E7010008B0
:10009000E7010008E7010008E7010008E7010008A0
:1000A000E7010008E7010008E7010008E701000890
:1000B000B9160008E7010008E7010008E701000899
:1000C000E7010008E7010008E7010008E701000870
:1000D000E7010008D5190008E7010008E70100085A
:1000E000E7010008E7010008E7010008E701000850
:1000F000E7010008E7010008E7010008E701000840
:10010000E7010008E7010008E7010008E70100082F
:10011000E7010008E7010008E7010008C916000828
:10012000E7010008E7010008E7010008E70100080F
:1001300000F002F800F03AF80AA090E8000C8244BF
:100140008344AAF10107DA4501D100F02FF8AFF29C
:10015000090EBAE80F0013F0010F18BFFB1A43F0A5
:10016000010318474819000068190000103A24BF1D
:1001700078C878C1FAD8520724BF30C830C144BF0C
:1001800004680C607047000000230024002500264E
:10019000103A28BF78C1FBD8520728BF30C148BFEA
:1001A0000B6070471FB51FBD10B510BD00F058F8AB
:1001B0001146FFF7F7FF01F051FC00F076F803B4A9
:1001C000FFF7F2FF03BC00F07DF80000094880470C
:1001D00009480047FEE7FEE7FEE7FEE7FEE7FEE729
:1001E000FEE7FEE7FEE7FEE704480549054A064B41
:1001F00070470000B51600083101000850010020CA
:100200005009002050050020500500204FF000024A
:1002100000B5134694469646203922BFA0E80C50FC
:10022000A0E80C50B1F12001BFF4F7AF090728BFD7
:10023000A0E80C5048BF0CC05DF804EB890028BF53
:1002400040F8042B08BF704748BF20F8022B11F07C
:10025000804F18BF00F8012B7047704770477047F8
:10026000754600F02BF8AE4605006946534620F06F
:100270000700854618B020B5FFF7B6FFBDE820405F
:100280004FF000064FF000074FF000084FF0000B52
:10029000AC46ACE8C009ACE8C009ACE8C009ACE8C1
:1002A000C00921F007018D46704710B50446AFF331
:1002B00000802046BDE81040FFF781BF004870472E
:1002C0001000002001491820ABBEFEE72600020006
:1002D00070470000FEE7000070470000EFF3108059
:1002E00072B600BFFEE70000014690F82100022828
:1002F00013D10868D1E90FC3026822F00E02026030
:10030000026822F001020260012000FA03F2CCF838
:10031000042081F82100002002E0042088630120ED
:10032000002281F82020704780B590F82110022922
:1003300027D1026840F2040C1368C4F2020C23F0C7
:100340000E03136013680CF17C018A4223F0010153
:1003500011601BD940F20841C4F202018A4248D020
:1003600040F21C41C4F202018A4246D040F23041C0
:10037000C4F202018A4244D14FF48073CCF80034B5
:1003800058E0042181630121084680BD4321C4F265
:1003900002018A420EDD6B21C4F202018A421BDC9B
:1003A0004421C4F202018A4239D05821C4F2020128
:1003B0008A4231E00821C4F202018A4232D01C2173
:1003C000C4F202018A4232D03021C4F202018A42D0
:1003D00022D14FF480722BE06C21C4F202018A42D8
:1003E00022D08021C4F202018A4215D14FF08072DE
:1003F0001EE00123CCF800341CE01023CCF80034BC
:1004000018E00CF588614FF480338A4208BF4FF43E
:100410008053CCF800340DE04FF4803208E04FF404
:10042000805205E0012203E04FF4801200E0102228
:10043000CCF80020012180F82110426B002180F8C7
:1004400020100AB190470021084680BDB0B504468F
:1004500000F012F9054640F20400C2F200000078F4
:10046000611C18BF044400BF00F006F9401BA04205
:10047000FAD3B0BD2DE9F04F83B00C68002C00F02A
:10048000EA80A0F18042A2F5843240F2004E4FEAA9
:10049000B22241F60047C4F2010E0092C4F20107F5
:1004A000062200254FF001094FF0000B4FF0000A23
:1004B000B84208BF0522019209E000BF0C680BF1A9
:1004C000010B34FA0BF205F1040500F0C48009FABF
:1004D0000BF814EA080CF1D04C684FF6FF72C1F229
:1004E0001002944210DC122C50D8DFE804F0330ADA
:1004F00041454F4F4F4F4F4F4F4F4F4F4F4F4F482B
:100500004C00D1F80CA041E04FF6FF72C1F221027D
:1005100094420FDC0022C1F2110294421AD0002250
:10052000C1F21202944215D00022C1F2210294427B
:1005300010D02BE00022C1F2220294420AD0002205
:10054000C1F23102944205D00022C1F2320294423B
:100550001CD100BF8C6844B1012C14BFC0F81480BA
:10056000C0F810804FF0080A10E04FF0040A0DE0C8
:10057000CC6804F1080A09E04FF0000A06E0CC68F4
:1005800004F1040A02E0CC6804F10C0A2C46074688
:10059000BCF5807F24BF203C04373A680F2303FA60
:1005A00004F6B2430AFA04F422433A60CA79D20646
:1005B0007FF584AF41F21804C4F2020422684FF6BA
:1005C000084842F0010222602268CFF6FF7802F06C
:1005D00001020292029A2BF00302724452F8084080
:1005E00005F00C0603FA06F7009BBC43019F052BA0
:1005F00038BF1F4607FA06F6344342F808404C68F5
:1006000040F20C46E202DEF8082054BF22EA0C0752
:1006100042EA0C07C4F20106A202CEF80870326862
:1006200054BF22EA0C0742EA0C07A2033760DEF847
:10063000042054BF22EA0C0742EA0C07E203CEF87A
:100640000470DEF8002054BF22EA0C0242EA0C02D9
:10065000CEF8002032E703B0BDE8F08FC26802EAAE
:100660000103914341EA034101617047002A08BF39
:10067000090401617047000040F24810C2F2000016
:100680000068704740F2040040F24811C2F20000D6
:10069000C2F2000100780A68104408607047000048
:1006A00080B542F20000C4F20200016841F010017E
:1006B0000160032000F092F80F2000F005F800F030
:1006C00057F8002080BD0000B0B586B041F21C0193
:1006D000C4F202010A68044642F001020A60096895
:1006E00001A801F0010101910199694600F034F976
:1006F000049D002D18BF012500F056F94DF68361C9
:10070000A840C4F21B31A0FB01014FF0FF3000EB09
:10071000914140F27000C2F200004FF0804240F27E
:10072000E7330025C0E90021C0E902530561856176
:1007300000F064FB0546C0B940F27000C2F2000050
:1007400000F0ACFB054680B91C2000F033F80F2CFC
:100750000AD81C202146002200F030F840F20800A0
:10076000C2F20000046000E00125284606B0B0BDDA
:1007700082B041F21800C4F202000168022241F086
:1007800001010160016801F00101019101994168D5
:1007900041F080514160406800F080500090009826
:1007A0000420C4F20100016862F31A61016002B022
:1007B0007047000080B501F017F980BD70B5144690
:1007C0000D46064601F020F92946224600F010FFAA
:1007D0000146304601F020F970BD000080B501F0FF
:1007E0002DF980BD2DE9F04381B0002800F089800B
:1007F00042F20008C4F202080446D8F800000D4690
:1008000000F0070088420CD2D8F8000020F0070062
:100810002843C8F80000D8F8000000F00700A842FC
:100820006FD1206841F204098107C4F2020917D58B
:10083000410705D5D9F8001041F4E061C9F800106E
:10084000010705D5D9F8001041F46051C9F800102E
:10085000D9F80010A26821F0F0011143C9F8001086
:10086000C00745D1D8F8000000F00700A8420CD915
:10087000D8F8000020F007002843C8F80000D8F896
:10088000000000F00700A8423BD12068410707D5CF
:10089000D9F80010E26821F4E0611143C9F80010B2
:1008A000000708D5D9F80000216920F4605040EA1B
:1008B000C100C9F8000000F09BF8D9F8001041F61B
:1008C0009422C1F30311C0F60002515C40F2000211
:1008D00020FA01F140F20800C2F200000068C2F202
:1008E00000021160FFF7F0FE002001B0BDE8F083C8
:1008F0006068022809D0012829D159F8041C89030D
:1009000007D4012001B0BDE8F08359F8041C890127
:10091000F7D5D9F8001021F003010843C9F8000009
:10092000FFF7AAFE064641F2883700BFD9F800005B
:10093000616800F00C00B0EB810F93D0FFF79CFED4
:10094000801BB842F2D9032001B0BDE8F08359F80A
:10095000041C8907D5D5DCE70F22026041F20402AE
:10096000C4F20202136803F003034360136803F048
:10097000F0038360136803F4E063C36012684FF40C
:10098000E06303EAD202026142F20000C4F2020014
:10099000006800F0070008607047000040F20000A7
:1009A000C2F200000068704780B5FFF7F7FF41F220
:1009B0000401C4F20201096841F6A422C1F3022134
:1009C000C0F60002515CC84080BD000080B5FFF752
:1009D000E5FF41F20401C4F20201096841F6A422D4
:1009E000C1F3C221C0F60002515CC84080BD0000C6
:1009F00041F2040CC4F2020CDCF8003003F00C00ED
:100A0000082841F20020C0F27A0018BF7047C3F3F3
:100A100083420AA18A5CD90305D440F60010C0F2D3
:100A20003D0050437047DCF8001008A3C1F340417B
:100A3000595C5043B0FBF1F0704700BF020304055E
:100A4000060708090A0B0C0D0E0F1010010200001A
:100A50002DE9F04182B0002800F0C48004460078FF
:100A600041F20006C007C4F2020643D0706800F0ED
:100A70000C00042817D0706800F00C00082802D180
:100A80007068C0030FD465682DB1B5F5A02F10D0E4
:100A9000B5F5803F11D0306820F480303060306888
:100AA00020F480200CE03068800323D5606808BB08
:100AB00098E0306840F480203060306840F4803046
:100AC0003060FFF7D9FD002D054610D03068800357
:100AD00010D4FFF7D1FD401B6428F7D904E100BF13
:100AE000FFF7CAFD401B64284FF0030077D8306839
:100AF0008003F5D42078800718D5706810F00C0FAB
:100B000007D0706800F00C00082826D17068C00378
:100B100023D43068800702D52069012862D130686B
:100B2000616920F0F80040EAC100306020780007D9
:100B30003DD5A06938B30020C4F242200121C0F89D
:100B40008014FFF799FD0546706A80072DD4FFF7E2
:100B500093FD401B0228F7D9C6E02069002840F227
:100B60000000C4F2422000F0968001210160FFF7EE
:100B700083FD054630688007D1D4FFF77DFD401B1B
:100B80000228F7D9B0E00020C4F242200021C0F8CA
:100B90008014FFF771FD0546706A800707D5FFF7DF
:100BA0006BFD401B0228F7D99EE000F039FD20784C
:100BB00040071BD4E5698DB1706800F00C0008286F
:100BC00047D1012D0ED07068216A00F480328A422C
:100BD00008D1616A00F47010884203D1002002B08D
:100BE000BDE8F081012002B0BDE8F081F06910F0AD
:100BF000805808D1F06940F08050F061F06900F051
:100C000080500190019847F20007C4F2000738684D
:100C1000C00510D4386840F480703860FFF72CFDB0
:100C2000054600BF3868C00505D4FFF725FD401B09
:100C30006428F7D958E0E5681DB1052D3CD0012D99
:100C40003ED0306A20F001003062306A20F00400AB
:100C500039E00027C4F2422700203866FFF70CFD78
:100C6000022D05460CD100BF3068800154D5FFF736
:100C700003FD401B02284FF00300F5D9AFE700BF8A
:100C800030688001AAD5FFF7F7FC401B02284FF01F
:100C90000300F5D9A3E700210160FFF7EDFC05464D
:100CA000306880077FF542AFFFF7E6FC401B022863
:100CB0004FF00300F4D992E7306A40F0040030624C
:100CC000306A40F001003062FFF7D6FC002D054687
:100CD00041F2883714D000BF306A800713D4FFF781
:100CE000CBFC401BB842F7D9032002B0BDE8F0812D
:100CF000FFF7C2FC401BB8424FF003003FF66FAF56
:100D0000306A8007F4D4B8F1000F7FF453AFF06974
:100D100020F08050F0614DE7206AB0F5803F05D1AA
:100D20007168A26821F40031114371607168626AD0
:100D300021F4741110430843706001203866FFF7F6
:100D40009BFC0446306880013FF548AFFFF794FCF8
:100D5000001B02284FF00300F4D940E77047000061
:100D60007047000010B590F83C20012A4FF00202B5
:100D700041D0012380F83C3080F83D200268D2F851
:100D800004E0D2F808C00C682EF07003234340F64C
:100D9000FF34C4F20004A24253600FDCB2F1804F72
:100DA0001ED040F20043C4F200039A4218D040F62D
:100DB0000003C4F200039A4212D016E040F600434A
:100DC000C4F200039A420BD043F20043C4F2010381
:100DD0009A4205D042F60043C4F201039A4204D17C
:100DE00049682CF08003194391600121002280F8AA
:100DF0003D1080F83C20104610BD0000002804BFC4
:100E00000120704710B5044690F83D0028B9002035
:100E100084F83C00204600F01FF8022084F83D00D2
:100E20002068211D00F058FC012084F8460084F859
:100E30003E0084F83F0084F8400084F8410084F8C4
:100E4000420084F8430084F8440084F8450084F8A4
:100E50003D00002010BD000080B582B0006841F266
:100E60000041C4F20001884201D002B080BD41F2CD
:100E70001C00C4F202000168002241F02001016060
:100E80000068002100F02000019001983720FFF752
:100E900095FC3720FFF78EFC02B080BD90F83D1026
:100EA00001291CBF01207047022180F83D10006815
:100EB00040F6FF32C168C4F20002904241F00101E5
:100EC000C1600FDCB0F1804F1ED040F20041C4F28F
:100ED0000001884218D040F60001C4F200018842A7
:100EE00012D018E040F60041C4F2000188420BD055
:100EF00043F20041C4F20101884205D042F60041AC
:100F0000C4F20101884206D1816801F00701062977
:100F100004BF00207047016841F00101016000201A
:100F2000704700007047000010B504460068016972
:100F3000890744BFC1685FEA817138D420680169BC
:100F4000490744BFC1685FEA41713CD42068016928
:100F5000090744BFC1685FEA017141D42068016993
:100F6000C90644BFC1685FEAC16145D42068016910
:100F7000C9071CBFC1685FEAC1714AD12068016915
:100F8000090644BFC1685FEA016149D4206801696C
:100F9000490644BFC1685FEA416148D420680169DD
:100FA000890644BFC1685FEA816147D410BD6FF014
:100FB00002010161012121778069800745D0204627
:100FC000FFF7B0FF47E06FF00401016102212177D4
:100FD000806910F4407F41D02046FFF7A3FF43E033
:100FE0006FF00801016104212177C06980073ED0BC
:100FF0002046FFF797FF40E06FF0100101610821E4
:101000002177C06910F4407F3AD02046FFF78AFF6D
:101010003CE06FF001010161204600F03FF8ADE7D0
:101020006FF0800101612046FFF798FEAEE76FF098
:1010300040010161204600F039F8AFE76FF0200170
:1010400001612046FFF78CFE10BD204600F022F81B
:10105000204600F021F8002020776FE7204600F0BE
:1010600019F8204600F018F8002020776EE7204697
:1010700000F010F8204600F00FF8002020776DE710
:10108000204600F007F8204600F006F80020207700
:101090006CE70000704700007047000080B50068F2
:1010A000B0F1804F08BFFFF7EDFA80BD7047000038
:1010B0007047000070470000B0B582B00368044676
:1010C0001868D9685A6900F02F05202D01F0200515
:1010D00005D125B1204600F0A7FB02B0B0BD5FEA04
:1010E000007C1EBF02F0010E01F4907212EB0E02A2
:1010F0004AD1226B0840C1063DD5012A3BD10020D0
:10110000019018680190586801900198586940064C
:1011100042D4A08DE18DE28D002A1CBF401A5FEA07
:10112000004101D102B0B0BD216851E8031F22681F
:1011300021F4907142E80313002BF5D1216851E8A6
:10114000051F226821F0010142E80513002BF5D1AB
:10115000202184F842100021216300BF216851E85A
:10116000031F226821F0100142E80313002BF5D180
:101170000221616354E0010658D44006D2D52046CE
:1011800000F046FB02B0B0BDC20718BF11F4807278
:1011900051D1420755D45BE0E06B016849688AB2DF
:1011A000002ABFD0A38D9A42BCD2E1858069202855
:1011B00031D000BF206850E8030F216820F4807010
:1011C00041E80302002AF5D1206850E8050F2168A4
:1011D00020F0010041E80502002AF5D1206850E81E
:1011E000050F216820F0400041E80502002AF5D1F2
:1011F000202084F842000020206300BF206850E8CF
:10120000030F216820F0100041E80302002AF5D105
:10121000E06BFFF769F802206063A08DE18D401A52
:1012200081B22046FFF744FF02B0B0BD204600F077
:10123000A7FB02B0B0BD626C42F0010262644207DB
:1012400006D5BEF1000F03D0626C42F00202626468
:10125000820706D5BEF1000F03D0626C42F0040293
:101260006264BCF1000F06D55EEA050203D0626C31
:1012700042F008026264626C002A3FF453AF0840F7
:10128000800602D5204600F0CFFA20684069616CE4
:1012900000F0400001F00801401827D0204600F07F
:1012A0008FFA2068406940061BD500BF206850E8CF
:1012B000050F216820F0400041E80502002AF5D121
:1012C000E06B70B141F2B171C0F600014163FFF70C
:1012D0002BF800283FF426AFE06B416B884702B043
:1012E000B0BD2046FFF7E6FE02B0B0BD2046FFF7D6
:1012F000E1FE0020606402B0B0BD0000002804BF21
:101300000120704710B5044690F8410028B900202C
:1013100084F84000204600F021F8242084F84100A1
:101320002068C16821F40051C160204600F0E0FA55
:101330002068016921F490410161416921F02A018D
:101340004161C16841F40051C16000202021606406
:1013500084F8411084F84210606310BD70B586B007
:1013600040F60004C4F20104006804F54051002670
:1013700088420596CDE90366029601D006B070BD9D
:1013800041F21800C4F20200016802AD41F480414C
:101390000160016801F4804101910199016841F007
:1013A000040101600068294600F0040001900198E2
:1013B0004FF4007002900220039003200590204615
:1013C000FFF758F84FF48060CDE902062046294621
:1013D0000496FFF74FF8252000210022FFF7EEF9D1
:1013E0002520FFF7E7F906B070BD00007047000048
:1013F00070470000FEE700002DE9F04F85B04FF088
:10140000000B41F21800CDE903BBCDE901BBC4F2EA
:101410000200016840F6000541F01001016001681A
:10142000C4F2010501F01001009100990168002249
:1014300041F020010160016801F020010091009954
:10144000016841F004010160016801F004010091AC
:101450000099016841F00801016000681E2100F058
:101460000800009000982846FFF700F905F580690C
:1014700048464FF6FF710022FFF7F8F805F50066C1
:1014800030464FF4F8610022FFF7F0F828464FF499
:10149000807101220124FFF7E9F805F54068404614
:1014A00004210122FFF7E2F801AF4FF0020A2846BB
:1014B0003946CDE9014BCDF80CA0FEF7DBFF1E202D
:1014C000CDE9010403200490284639460394FEF731
:1014D000D1FF2020CDE9010B304639460394FEF7B9
:1014E000C9FF4FF6FF6001A981E811084846394657
:1014F000CDF810A0FEF7BEFF4FF4F86001A981E817
:10150000110830463946CDF810A0FEF7B3FF4FF46E
:10151000807628463946CDE90164CDE903AAFEF775
:10152000A9FF4FF40040CDE9010B2846394603944A
:10153000FEF7A0FF042001A981E8110840463946C2
:101540000494FEF797FF48463946CDE90164CDE99A
:101550000344FEF78FFF05B0BDE8F08F10B582B0F1
:1015600040F2B80041F20041C2F20000C4F20001B2
:101570000024472240F2E73380E816008021CDE9BD
:101580000044C3608161FFF739FC002818BFFEF7F3
:10159000A5FE40F2B800C2F200006946CDE9004461
:1015A000FFF7E0FB002818BFFEF798FE02B010BD61
:1015B00080B540F2001043F60001C2F20000C4F210
:1015C000010100234FF00C0C4FF4E13280E80E00D3
:1015D000C0E90333C0E905C3C361FFF78FFE0028EC
:1015E00018BFFEF77BFE80BDFEE70000FEE70000AF
:1015F00000F0070080F00703042B28BF04234FF0FE
:10160000FF3C03380CFA03F338BF002099438140B4
:101610000CFA00F022EA000008437047704700000F
:1016200081B040F20000C2F20000006844F6D351DD
:10163000C1F26201A0FB0101480A009000BF0098BE
:10164000411E00280091F9D101B070477047000099
:101650007047000070B590B006AC20462821FEF718
:10166000D5FD012006900A904FF4E01000254FF4BC
:10167000803102260F9020460595CDE90355CDE92E
:101680000155CDE90715CDE90D61FFF7E1F978B90D
:101690000F20CDE901064FF48060CDE9040501A8D3
:1016A00002210395FFF79EF8002804BF10B070BD1B
:1016B000FEF714FE7047000080B540F27000C2F2E1
:1016C0000000FFF731FC80BD80B540F2B800C2F2E7
:1016D0000000FFF729FC80BD10B540F6FF3E03680F
:1016E000C4F2000E43F2004C7045C4F2010C20DC41
:1016F000B0F1804F2BD040F20042C4F20002904281
:1017000025D040F60002C4F2000290421FD070457E
:1017100023DCB0F1804F2ED040F20042C4F2000230
:10172000904228D040F60002C4F20002904222D03B
:1017300025E040F60042C4F20002904207D0604526
:1017400005D042F60042C4F201029042DFD14A685D
:1017500023F0700313437045DBDD40F60042C4F212
:101760000002904207D0604505D042F60042C4F224
:101770000102904203D1CA6823F44073134323F05B
:1017800080024B69D1F800E08C681A436045026022
:10179000C462C0F828E005D042F60042C4F201025B
:1017A000904201D1096901630121416110BD00002E
:1017B00080B5406A0021C185C184FFF77BFC80BDF4
:1017C000016851E8031F026821F4907142E8031395
:1017D000002BF5D1016851E8051F026821F00101D5
:1017E00042E80513002BF5D1016B01290AD100BF96
:1017F000016851E8031F026821F0100142E8031359
:10180000002BF5D1202180F84210002101637047A0
:1018100080B50168CA6822F04002CA60202180F8C1
:101820004110FFF7E5FD80BD80B582B090F8421011
:1018300022291ED18268B2F5805F02D10169002998
:101840004AD0816AB2F5805F07D00AB9026922B135
:101850000268526802F07F0201E0026852680A7072
:101860000121826A11448162C18D01390A04C18556
:1018700001D002B080BD0168CA6822F02002CA60AF
:10188000CA6822F48072CA604A6922F001024A6181
:10189000202180F8421000214163026B012A23D1EC
:1018A000016300BF016851E8031F026821F01001C5
:1018B00042E80313002BF5D101680A68D20606D569
:1018C000002201920A680192496801910199818D73
:1018D000FFF7EEFB02B080BD0168826A49686FF3D2
:1018E0005F2111800221BCE7FFF780FD02B080BDBF
:1018F00010B504460068D4E902C22369016921F4E5
:10190000405111430161616943EA0C021143C2680D
:1019100041F20C639A431143C1604169A26921F409
:101920004071114343F60002C4F20102904241614A
:1019300002D0FFF739F801E0FFF748F86268192193
:1019400048439100B0FBF1F048F21F51C5F2EB1192
:10195000A0FB01235A096FF0630302FB030032234B
:1019600003EB0010A0FB0101F02303EA51132068F0
:1019700003EB0212C1F343111144816010BD00005A
:1019800090F84110212923D18168B1F5805F01D100
:10199000016931B1016A02684B1C03620978516028
:1019A00007E0016A036831F8022B6FF35F225A6087
:1019B0000162C18C01390A04C18418BF70470068F4
:1019C000C16821F08001C160C16841F04001C1607F
:1019D0007047000080B540F20010C2F20000FFF72F
:1019E0006BFB80BDFEE70000002848BF704700F099
:1019F0001F01012202FA01F14EF200124009CEF25B
:101A0000000242F8201070474EF60C50CEF2000053
:101A10000068C0F3022070474EF6145300F00F0226
:101A2000CEF2000309011A4400F16043B0F1FF3F18
:101A3000C8BF03F564421170704700004EF60C51A8
:101A4000CEF200010A684FF6FF031A4060F30A2243
:101A500042F0806040F0FD7008607047FEF720FEA5
:101A6000FFF7F8FDFFF7C8FCFFF7A2FDFFF776FDD3
:101A700000F002F8FEE7000040F60004C4F20104A2
:101A800020464FF48071FEF7E9FD4FF49670FEF7A3
:101A9000DDFCF5E700000000000000000102030487
:101AA000060708090000000001020304D01A00081C
:101AB00000000020100000006C010008E01A00087F
:101AC000100000204009000088010008000000000C
:101AD0000024F400010000001000000000000000DD
:0400000508000131BD
:00000001FF
