:020000040800F2
:1000000050090020F90100086D240008F5210008BE
:1000100069240008010300089D2A00080000000070
:100020000000000000000000000000001D25000886
:100030000503000800000000DD2400082125000859
:10004000130200081302000813020008130200083C
:10005000130200081302000813020008130200082C
:10006000130200081302000813020008130200081C
:10007000130200081302000813020008130200080C
:1000800013020008130200081302000813020008FC
:1000900013020008130200081302000813020008EC
:1000A00013020008130200081302000813020008DC
:1000B0009525000813020008130200081302000827
:1000C00013020008130200081302000813020008BC
:1000D000130200088D2A000813020008130200080A
:1000E000130200081302000813020008130200089C
:1000F000130200081302000813020008130200088C
:10010000130200081302000813020008130200087B
:10011000130200081302000813020008A5250008B6
:10012000130200081302000813020008130200085B
:1001300000F002F800F050F814A696E8000CB24463
:10014000B344DA4501D100F047F8BAE80F000FA632
:1001500096E83000A5EB040504EB0607AAEB0704BC
:10016000A7F101074FEA15154FEA3414A4F1010471
:10017000AC4201D300F030F813F0010F18BFFB1AA6
:1001800043F0010300F001F8DBE71847402A0000C4
:10019000602A0000103A24BF78C878C1FAD8520704
:1001A00024BF30C830C144BF04680C6070470000F1
:1001B000704700000023002400250026103A28BFC5
:1001C00078C1FBD8520728BF30C148BF0B607047C9
:1001D0001FB51FBD10B510BD00F058F81146FFF750
:1001E000F7FF02F0BDFC00F076F803B4FFF7F2FF72
:1001F00003BC00F07DF8000009488047094800472B
:10020000FEE7FEE7FEE7FEE7FEE7FEE7FEE7FEE7C6
:10021000FEE7FEE704480549054A064B7047000023
:1002200091250008310100085001002050090020EC
:1002300050050020500500204FF0000200B5134685
:1002400094469646203922BFA0E80C50A0E80C50F6
:10025000B1F12001BFF4F7AF090728BFA0E80C50A7
:1002600048BF0CC05DF804EB890028BF40F8042BA0
:1002700008BF704748BF20F8022B11F0804F18BF0D
:1002800000F8012B7047704770477047754600F0C3
:100290002BF8AE4605006946534620F00700854618
:1002A00018B020B5FFF7B6FFBDE820404FF00006BC
:1002B0004FF000074FF000084FF0000BAC46ACE8E1
:1002C000C009ACE8C009ACE8C009ACE8C00921F03D
:1002D00007018D46704710B50446AFF300802046F5
:1002E000BDE81040FFF781BF0048704710000020B4
:1002F00001491820ABBEFEE726000200704700004F
:10030000FFE7FEE77047000081B0EFF3108072B6A0
:100310000090FFE7FEE7000083B0019000208DF819
:100320000300019890F8210002280DD0FFE7019901
:1003300004208863FFE70199002081F82000FFE78F
:1003400001208DF80B0021E001980168086820F079
:100350000E00086001980168086820F0010008603C
:100360000198C16B026C012090404860FFE7019941
:10037000012081F82100FFE70199002081F8200089
:10038000FFE79DF803008DF80B00FFE79DF80B00D9
:1003900003B0704780B596B0159000208DF85300DB
:1003A000159890F82100022807D0FFE7159904203E
:1003B000886301208DF8530074E11598016808687E
:1003C00020F00E00086015980168086820F0010010
:1003D0000860159800688121C4F202018842C0F0CB
:1003E000A880FFE7159800680821C4F2020188423E
:1003F00003D1FFE70120139094E0159800681C21B9
:10040000C4F20201884203D1FFE71020129086E077
:10041000159800683021C4F20201884204D1FFE738
:100420004FF48070119077E0159800684421C4F271
:100430000201884204D1FFE74FF48050109068E039
:10044000159800685821C4F20201884204D1FFE7E0
:100450004FF480300F9059E0159800686C21C4F279
:100460000201884204D1FFE74FF480100E904AE069
:10047000159800688021C4F20201884204D1FFE788
:100480004FF080700D903BE01598006840F20841F5
:10049000C4F20201884203D1FFE701200C902CE056
:1004A0001598006840F21C41C4F20201884203D151
:1004B000FFE710200B901DE01598006840F23041D6
:1004C000C4F20201884204D1FFE74FF480700A9021
:1004D0000DE01598016840F24442C4F202024FF464
:1004E0008030914208BF4FF480500A90FFE70A988D
:1004F0000B90FFE70B980C90FFE70C980D90FFE72F
:100500000D980E90FFE70E980F90FFE70F98109050
:10051000FFE710981190FFE711981290FFE71298EB
:100520001390FFE7139840F20441C4F202010860FF
:10053000A5E0159800680821C4F20201884203D1A1
:10054000FFE70120099094E0159800681C21C4F28F
:100550000201884203D1FFE71020089086E0159839
:1005600000683021C4F20201884204D1FFE74FF451
:100570008070079077E0159800684421C4F202016A
:10058000884204D1FFE74FF48050069068E0159848
:1005900000685821C4F20201884204D1FFE74FF4F9
:1005A0008030059059E0159800686C21C4F2020172
:1005B000884204D1FFE74FF4801004904AE0159878
:1005C00000688021C4F20201884204D1FFE74FF0A5
:1005D000807003903BE01598006840F20841C4F237
:1005E0000201884203D1FFE7012002902CE0159818
:1005F000006840F21C41C4F20201884203D1FFE7C7
:10060000102001901DE01598006840F23041C4F2BE
:100610000201884204D1FFE74FF4807000900DE0A2
:100620001598016840F24442C4F202024FF480304F
:10063000914208BF4FF480500090FFE7009801906E
:10064000FFE701980290FFE702980390FFE7039805
:100650000490FFE704980590FFE705980690FFE7F0
:1006600006980790FFE707980890FFE70898099019
:10067000FFE709980421C4F202010860FFE7159919
:10068000012081F82100FFE71599002081F8200062
:10069000FFE71598406B20B1FFE71598416B88473D
:1006A000FFE7FFE79DF8530016B080BD80B584B02A
:1006B000039000F0F5F90290039801900198013041
:1006C00048B1FFE740F20400C2F20000017801984F
:1006D00008440190FFE7FFE700F0E2F90299401AB1
:1006E0000199884201D2FFE7F6E704B080BD00001F
:1006F00092B01190109100200F900B90FFE710988E
:1007000000680F99C840002800F09B81FFE70F990F
:10071000012088400E90109800680E9908400D90B6
:100720000D980E99884240F08881FFE71098406844
:100730000790002851D0FFE7079801283AD0FFE73B
:10074000079802283FD0FFE7079803285FD0FFE70C
:100750000798112832D0FFE70798122838D0FFE712
:1007600007980021C1F21101884236D0FFE70798AF
:100770000021C1F2120188422FD0FFE70798002123
:10078000C1F22101884228D0FFE707980021C1F279
:100790002201884221D0FFE707980021C1F23101F0
:1007A00088421AD0FFE707980021C1F2320188423F
:1007B00013D02FE01098C0680B902CE01098C06800
:1007C00004300B9027E01098C06808300B9022E0AE
:1007D0001098C0680C300B901DE01098806818B914
:1007E000FFE704200B9011E010988068012806D1E3
:1007F000FFE708200B900E981199086105E008208A
:100800000B900E9811994861FFE7FFE703E0002085
:100810000B9000E0FFE70D98FF2803D8FFE7119841
:10082000069003E0119804300690FFE706980A90BE
:100830000D98FF2804D8FFE70F988000059006E088
:100840000F996FF01F0000EB81000590FFE70598FE
:1008500009900A980068099A0F21914088430B99E2
:10086000914008430A9908601098C079C006002892
:1008700040F1E280FFE7FFE741F21800C4F2020016
:10088000016841F001010160006800F0010008907A
:100890000898FFE70F9820F003000821C4F2010137
:1008A00040580C900F9800F0030081000F2000FAD0
:1008B00001F10C9888430C90119840F60001C4F2A5
:1008C0000101884203D1FFE70020049042E0119823
:1008D00040F60041C4F20101884203D1FFE7012044
:1008E000039034E0119841F20001C4F20101884202
:1008F00003D1FFE70220029026E0119841F2004167
:10090000C4F20101884203D1FFE70320019018E0FF
:10091000119841F60001C4F20101884203D1FFE7BA
:10092000042000900AE0119941F60042C4F201024D
:100930000620914208BF05200090FFE70098019033
:10094000FFE701980290FFE702980390FFE7039802
:100950000490FFE704980F9901F00301890000FA61
:1009600001F10C9808430C900C980F9921F00301A9
:100970000822C4F20102885010988079C00600282D
:1009800009D5FFE70D9A40F20841C4F20101086859
:100990001043086008E00D9A40F20841C4F20101DA
:1009A000086890430860FFE7109880798006002867
:1009B00009D5FFE70D9A40F20C41C4F20101086825
:1009C0001043086008E00D9A40F20C41C4F20101A6
:1009D000086890430860FFE7109880798007002836
:1009E00009D5FFE70D9A40F20441C4F201010868FD
:1009F0001043086008E00D9A40F20441C4F201017E
:100A0000086890430860FFE710988079C00748B1F4
:100A1000FFE70D9A40F20041C4F20101086810435B
:100A2000086008E00D9A40F20041C4F20101086834
:100A300090430860FFE7FFE7FFE70F9801300F9052
:100A40005DE612B07047000083B00290ADF806106A
:100A50000298C0680090009ABDF8060002EA000102
:100A6000904340EA01400299086103B070470000DA
:100A700082B00190ADF802108DF801209DF80100C0
:100A800028B1FFE7BDF802000199086105E0BDF853
:100A90000200000401990861FFE702B070470000FE
:100AA00040F24810C2F200000068704740F20400B3
:100AB000C2F20000027840F24811C2F20001086858
:100AC000104408607047000080B542F20001C4F293
:100AD0000201086840F010000860032000F0D4F81C
:100AE0000F2000F005F800F079F8002080BD00002C
:100AF00080B58CB00B900020049003908DF8070017
:100B0000FFE741F21C00C4F20200016841F001015C
:100B10000160006800F0010000900098FFE706A85F
:100B200002A900F0E5F909980490049820B9FFE7BC
:100B300000F00EFA059004E000F00AFA400005907B
:100B4000FFE705984DF68361C4F21B31A0FB01015C
:100B50004FF0FF3000EB9140039040F27000C2F282
:100B600000004FF08041016040F2E731C16003991D
:100B70004160002101618160816100F031FE8DF8EA
:100B800007009DF8070028BBFFE740F27000C2F2A3
:100B9000000000F09BFE8DF807009DF80700C0B92B
:100BA000FFE71C2000F04CF80B980F280CD8FFE74B
:100BB0000B991C20002200F04DF80B9840F2080120
:100BC000C2F20001086003E001208DF80700FFE792
:100BD000FFE7FFE79DF807000CB080BD83B0FFE79B
:100BE00041F21800C4F20200016841F00101016005
:100BF000006800F0010002900298FFE7FFE741F271
:100C00001C00C4F20200016841F0805101600068DC
:100C100000F0805001900198FFE7FFE70421C4F243
:100C2000010108680090009820F0E06000900098B2
:100C300040F00070009000980860FFE703B0704734
:100C400080B582B08DF807009DF9070001F028FFFC
:100C500002B080BD80B586B08DF817000491039274
:100C60000020029001F034FF02909DF917000190DE
:100C700002980499039A01F0FBFB0146019801F0E8
:100C80002FFF06B080BD000080B582B001900198B2
:100C900001F048FF02B080BD80B584B002900191A0
:100CA000029820B9FFE701208DF80F001BE10198A1
:100CB00042F20001C4F20201096801F00701884212
:100CC00016D9FFE742F20000C4F20200016821F0E9
:100CD0000701019A11430160006800F007000199C3
:100CE000884204D0FFE701208DF80F00FBE0FFE70A
:100CF00002980078800700282AD5FFE7029800783C
:100D00004007002809D5FFE741F20401C4F20201BF
:100D1000086840F4E0600860FFE702980078000788
:100D2000002809D5FFE741F20401C4F20201086876
:100D300040F460500860FFE741F20401C4F2020190
:100D4000086820F0F000029A926810430860FFE7FC
:100D500002980078C007002860D0FFE7029840683A
:100D600001280ED1FFE741F20000C4F20200006842
:100D70008003002804D4FFE701208DF80F00B2E0C3
:100D800021E00298406802280ED1FFE741F20000FE
:100D9000C4F2020000688001002804D4FFE70120AB
:100DA0008DF80F009FE00DE041F20000C4F2020058
:100DB00000688007002804D4FFE701208DF80F00A9
:100DC00091E0FFE7FFE741F20401C4F20201086885
:100DD00020F00300029A526810430860FFF760FE9B
:100DE0000090FFE741F20400C4F20200006800F046
:100DF0000C0002994968B0EB810F0ED0FFE7FFF7B6
:100E00004FFE0099401A41F28931884204D3FFE72E
:100E100003208DF80F0066E0E4E7FFE7019842F257
:100E20000001C4F20201096801F00701884216D2EC
:100E3000FFE742F20000C4F20200016821F007015E
:100E4000019A11430160006800F00700019988428F
:100E500004D0FFE701208DF80F0044E0FFE702987F
:100E60000078400700280CD5FFE741F20401C4F2E6
:100E70000201086820F4E060029AD268104308601A
:100E8000FFE702980078000700280DD5FFE741F240
:100E90000401C4F20201086820F46050029A126949
:100EA00040EAC2000860FFE700F076F841F2040172
:100EB000C4F202010968C9B20A0942F6A231C0F6B9
:100EC0000001895CC84040F20001C2F200010860E4
:100ED00040F20800C2F200000068FFF709FE00209F
:100EE0008DF80F00FFE79DF80F0004B080BD0000F3
:100EF00082B00190009101990F20086041F2040036
:100F0000C4F20200016801F00301019A5160016816
:100F100001F0F001019A9160016801F4E061019A29
:100F2000D160006800F46050C0080199086142F285
:100F30000000C4F20200006800F007000099086099
:100F400002B0704740F20000C2F200000068704733
:100F500080B5FFF7F7FF41F20401C4F2020109680E
:100F6000C1F3022242F6B231C0F60001895CC840EA
:100F700080BD000080B5FFF7E5FF41F20401C4F237
:100F800002010968C1F3C22242F6B231C0F6000183
:100F9000895CC84080BD000086B0002005900490A8
:100FA00003900290019041F20400C4F20200006834
:100FB0000590059800F00C000146009100283FD0F4
:100FC000FFE70098042804D0FFE70098082806D01F
:100FD00037E041F20020C0F27A00019037E0059836
:100FE000C0F3834142F6BA30C0F60000405C029084
:100FF0009DF81600C007C0B1FFE741F20400C4F23B
:1010000002000068C0F3404142F6CA30C0F600005A
:10101000405C0490029841F20021C0F27A014843FA
:101020000499B0FBF1F0039007E0029840F600113C
:10103000C0F23D0148430390FFE70398019006E0AA
:10104000FFE741F20020C0F27A000190FFE701982B
:1010500006B0704780B586B00490049820B9FFE7C9
:1010600001208DF817002EE304980078C0070028AF
:1010700000F0AE80FFE741F20400C4F20200006815
:1010800000F00C00042813D0FFE741F20400C4F282
:101090000200006800F00C0008281BD1FFE741F2B5
:1010A0000400C4F202000068C003002812D5FFE764
:1010B00041F20000C4F2020000688003002808D555
:1010C000FFE70498406820B9FFE701208DF817007A
:1010D000F9E27CE0FFE704984068B0F5803F09D171
:1010E000FFE741F20001C4F20201086840F48030D9
:1010F000086032E00498406868B9FFE741F20001F7
:10110000C4F20201086820F480300860086820F406
:101110008020086020E004984068B0F5A02F0DD131
:10112000FFE741F20001C4F20201086840F48020A8
:101130000860086840F4803008600CE041F200016B
:10114000C4F20201086820F480300860086820F4C6
:1011500080200860FFE7FFE7FFE7FFE704984068AB
:10116000D0B1FFE7FFF79CFC0390FFE741F20000DE
:10117000C4F202000068800300280CD4FFE7FFF7E8
:101180008FFC0399401A652804D3FFE703208DF8EC
:10119000170098E2EAE719E0FFF782FC0390FFE707
:1011A00041F20000C4F202000068800300280CD560
:1011B000FFE7FFF775FC0399401A652804D3FFE7A2
:1011C00003208DF817007EE2EAE7FFE7FFE7FFE77D
:1011D000049800788007002840F18D80FFE741F2F5
:1011E0000400C4F20200006810F00C0F13D0FFE7F7
:1011F00041F20400C4F20200006800F00C0008286C
:1012000029D1FFE741F20400C4F202000068C003E4
:10121000002820D4FFE741F20000C4F20200006879
:101220008007002809D5FFE704980069012804D049
:10123000FFE701208DF8170045E241F20001C4F2FA
:101240000201086820F0F800049A526940EAC200DE
:101250000860FFE74EE00498006958B3FFE70021FB
:10126000C4F2422101200860FFF71AFC0390FFE757
:1012700041F20000C4F202000068800700280CD48C
:10128000FFE7FFF70DFC0399401A032804D3FFE79B
:1012900003208DF8170016E2EAE741F20001C4F2DC
:1012A0000201086820F0F800049A526940EAC2007E
:1012B00008601EE00021C4F2422100200860FFF710
:1012C000EFFB0390FFE741F20000C4F20200006868
:1012D000800700280CD5FFE7FFF7E2FB0399401ACF
:1012E000032804D3FFE703208DF81700EBE1EAE7BA
:1012F000FFE7FFE7FFE7049800780007002848D5DC
:10130000FFE70498806918B3FFE740F28041C4F218
:10131000422101200860FFF7C3FB0390FFE741F281
:101320002400C4F202000068800700280CD4FFE704
:10133000FFF7B6FB0399401A032804D3FFE7032005
:101340008DF81700BFE1EAE7012001F0C9F81FE0BE
:1013500040F28041C4F2422100200860FFF7A0FB68
:101360000390FFE741F22400C4F202000068800706
:1013700000280CD5FFE7FFF793FB0399401A0328D9
:1013800004D3FFE703208DF817009CE1EAE7FFE7AD
:10139000FFE7049800784007002840F1D880FFE775
:1013A00000208DF8070041F21C00C4F20200006822
:1013B000C000002813D4FFE7FFE741F21C00C4F28D
:1013C0000200016841F080510160006800F0805027
:1013D00000900098FFE701208DF80700FFE747F233
:1013E0000000C4F200000068C005002822D4FFE716
:1013F00047F20001C4F20001086840F48070086000
:10140000FFF74EFB0390FFE747F20000C4F2000035
:101410000068C00500280CD4FFE7FFF741FB0399E3
:10142000401A652804D3FFE703208DF817004AE12E
:10143000EAE7FFE7FFE70498C068012809D1FFE762
:1014400041F22001C4F20201086840F00100086086
:1014500031E00498C06868B9FFE741F22001C4F2A6
:101460000201086820F001000860086820F004000C
:1014700008601FE00498C06805280DD1FFE741F21D
:101480002001C4F20201086840F004000860086806
:1014900040F0010008600CE041F22001C4F20201BA
:1014A000086820F001000860086820F00400086067
:1014B000FFE7FFE7FFE7FFE70498C068E0B1FFE759
:1014C000FFF7EEFA0390FFE741F22000C4F20200BA
:1014D0000068800700280ED4FFE7FFF7E1FA0399C0
:1014E000401A41F28931884204D3FFE703208DF886
:1014F0001700E8E0E8E71BE0FFF7D2FA0390FFE708
:1015000041F22000C4F202000068800700280ED5D6
:10151000FFE7FFF7C5FA0399401A41F28931884283
:1015200004D3FFE703208DF81700CCE0E8E7FFE7DE
:101530009DF80700012809D1FFE741F21C01C4F220
:101540000201086820F080500860FFE7FFE7049878
:10155000C069002800F0B380FFE741F20400C4F244
:101560000200006800F00C00082800F08280FFE70D
:101570000498C06902285CD1FFE76021C4F24221CF
:1015800000200860FFF78CFA0390FFE741F20000AB
:10159000C4F202000068800100280CD5FFE7FFF7C5
:1015A0007FFA0399401A032804D3FFE703208DF83C
:1015B000170088E0EAE70498006AB0F5803F0CD194
:1015C000FFE741F20401C4F20201086820F4003090
:1015D000049A926810430860FFE741F20401C4F2E4
:1015E0000201086820F47410049B1A6A5B6A1A43AB
:1015F000104308606021C4F2422101200860FFF717
:101600004FFA0390FFE741F20000C4F202000068C5
:10161000800100280CD4FFE7FFF742FA0399401A33
:10162000032804D3FFE703208DF817004BE0EAE717
:101630001EE06021C4F2422100200860FFF730FA6A
:101640000390FFE741F20000C4F20200006880014D
:1016500000280CD5FFE7FFF723FA0399401A032867
:1016600004D3FFE703208DF817002CE0EAE7FFE73B
:1016700024E00498C069012804D1FFE701208DF817
:10168000170020E041F20400C4F20200006802905A
:10169000029800F480300499096A884208D1FFE773
:1016A000029800F470100499496A884204D0FFE758
:1016B00001208DF8170006E0FFE7FFE7FFE70020B5
:1016C0008DF81700FFE79DF8170006B080BD0000F9
:1016D00081B0009001B0704781B0009001B07047B8
:1016E00085B003900291FFE7039890F83C00012831
:1016F00004D1FFE702208DF813006DE0039901206B
:1017000081F83C00FFE7FFE70399022081F83D00E4
:101710000398006840680190039800688068009012
:10172000019820F070000190029801680198084328
:10173000019001980399096848600398006842F68F
:101740000041C4F2010188422AD0FFE703980068F3
:1017500043F20041C4F20101884221D0FFE703981F
:101760000068B0F1804F1BD0FFE70398006840F29B
:101770000041C4F20001884212D0FFE703980068DC
:1017800040F60001C4F20001884209D0FFE7039847
:10179000006840F60041C4F2000188420ED1FFE724
:1017A000009820F08000009002984168009808435B
:1017B00000900098039909688860FFE70399012069
:1017C00081F83D00FFE70399002081F83C00FFE726
:1017D00000208DF81300FFE79DF8130005B0704757
:1017E00080B582B00090009820B9FFE701208DF805
:1017F00007003FE0009890F83D0040B9FFE70099EE
:10180000002081F83C00009800F038F8FFE70099CC
:10181000022081F83D00009951F8040B00F0CAFE47
:101820000099012081F84600FFE70099012081F826
:101830003E00009981F83F00009981F8400000992E
:1018400081F84100FFE7FFE70099012081F842009D
:10185000009981F84300009981F84400009981F8CB
:101860004500FFE70099012081F83D0000208DF838
:101870000700FFE79DF8070002B080BD80B584B087
:1018800003900398006841F20041C4F200018842CD
:1018900019D1FFE7FFE741F21C00C4F20200016822
:1018A00041F020010160006800F0200002900298E1
:1018B000FFE73720019000221146FFF7CBF901988E
:1018C000FFF7BEF9FFE704B080BD000083B00190D0
:1018D000019890F83D00012804D0FFE701208DF821
:1018E0000B0059E00199022081F83D000198016840
:1018F000C86840F00100C8600198006842F60041E5
:10190000C4F2010188422AD0FFE70198006843F23F
:101910000041C4F20101884221D0FFE7019800682C
:10192000B0F1804F1BD0FFE70198006840F2004102
:10193000C4F20001884212D0FFE70198006840F627
:101940000001C4F20001884209D0FFE70198006855
:1019500040F60041C4F20001884212D1FFE701982D
:101960000068806800F0070000900098062807D003
:10197000FFE701980168086840F001000860FFE790
:1019800006E001980168086840F001000860FFE780
:1019900000208DF80B00FFE79DF80B0003B07047A7
:1019A00081B0009001B0704780B582B0019001987D
:1019B0000068006900F002010020B0EB510F28D050
:1019C000FFE701980068C06800F002010020B0EB5A
:1019D000510F1DD0FFE7019801686FF00200086108
:1019E000019901200877019800688069800720B17B
:1019F000FFE70198FFF7D4FF06E0019800F012F925
:101A0000019800F013F9FFE7019900200877FFE73C
:101A1000FFE701980068006900F004010020B0EBC6
:101A2000910F29D0FFE701980068C06800F0040119
:101A30000020B0EB910F1ED0FFE7019801686FF016
:101A40000400086101990220087701980068806904
:101A500010F4407F04D0FFE70198FFF7A1FF06E0F4
:101A6000019800F0DFF8019800F0E0F8FFE7019935
:101A700000200877FFE7FFE701980068006900F0A1
:101A800008010020B0EBD10F28D0FFE701980068D3
:101A9000C06800F008010020B0EBD10F1DD0FFE7B7
:101AA000019801686FF00800086101990420087727
:101AB00001980068C069800720B1FFE70198FFF72F
:101AC0006FFF06E0019800F0ADF8019800F0AEF865
:101AD000FFE7019900200877FFE7FFE7019800681A
:101AE000006900F010010020B0EB111F29D0FFE7C2
:101AF00001980068C06800F010010020B0EB111FD1
:101B00001ED0FFE7019801686FF01000086101998D
:101B10000820087701980068C06910F4407F04D05D
:101B2000FFE70198FFF73CFF06E0019800F07AF824
:101B3000019800F07BF8FFE7019900200877FFE7A4
:101B4000FFE7019800680069C00780B1FFE70198CE
:101B50000068C068C00748B1FFE7019801686FF0EE
:101B600001000861019800F065F8FFE7FFE70198C0
:101B700000680069C1B20020B0EBD11F13D0FFE7AD
:101B800001980068C068C1B20020B0EBD11F09D035
:101B9000FFE7019801686FF0800008610198FFF786
:101BA00097FDFFE7FFE701980068006900F040013A
:101BB0000020B0EB911F14D0FFE701980068C068C7
:101BC00000F040010020B0EB911F09D0FFE7019821
:101BD00001686FF040000861019800F039F8FFE7F4
:101BE000FFE701980068006900F020010020B0EBD9
:101BF000511F14D0FFE701980068C06800F0200171
:101C00000020B0EB511F09D0FFE7019801686FF089
:101C1000200008610198FFF75FFDFFE7FFE702B0D2
:101C200080BD000081B0009001B0704781B000908D
:101C300001B0704780B582B0019001980068B0F1A2
:101C4000804F03D1FFE7FEF731FFFFE702B080BD11
:101C500081B0009001B0704782B00190ADF80210E1
:101C600002B0704781B0009001B0704780B592B06B
:101C70001190119800680068109011980068C06871
:101C80000F901198006840690E9000200D900C9004
:101C9000109800F00F000D900D9888B9FFE79DF89F
:101CA0004000800600280AD5FFE79DF83C0080062A
:101CB000002804D5FFE7119800F08AFDE9E1FFE76D
:101CC0000D98002800F0C280FFE79DF83800C0079B
:101CD00038B9FFE7BDF83C0010F4907F00F0B68003
:101CE000FFE79DF84000C00758B1FFE79DF83D00B1
:101CF000C00730B1FFE71199486C40F0010048641B
:101D0000FFE79DF84000400700280BD5FFE79DF84E
:101D10003800C00730B1FFE71199486C40F002006D
:101D20004864FFE79DF84000800700280BD5FFE7D7
:101D30009DF83800C00730B1FFE71199486C40F0BA
:101D400004004864FFE79DF840000007002811D513
:101D5000FFE79DF83C008006002805D4FFE79DF8CA
:101D60003800C00730B1FFE71199486C40F0080017
:101D70004864FFE71198406C002866D0FFE79DF8A3
:101D80004000800600280AD5FFE79DF83C00800649
:101D9000002804D5FFE7119800F01AFDFFE711981D
:101DA00000684069C0F380100C901198406C0007E7
:101DB000002804D4FFE70C9800283ED0FFE71198D4
:101DC00000F0A8FC119800684069400600282FD553
:101DD000FFE7FFE7FFE71198006850E8050F20F0E4
:101DE00040000B90FFE70B991198026842E805103C
:101DF0000028F0D1FFE7FFE71198C06B98B1FFE72B
:101E00001198C16B42F2F560C0F60000486311986A
:101E1000C06BFEF7BFFA28B1FFE71198C06B416BAA
:101E20008847FFE703E01198FFF71CFFFFE703E097
:101E30001198FFF717FFFFE706E01198FFF712FF71
:101E4000119900204864FFE7FFE722E11198006B39
:101E5000012840F0FE80FFE79DF84000C006002802
:101E600040F1F780FFE79DF83C00C006002840F1F4
:101E7000F080FFE7FFE700200A90119800680068F3
:101E80000A901198006840680A900A98FFE7119834
:101E9000006840694006002840F18180FFE7119802
:101EA000C06B00684068ADF82600BDF82600002829
:101EB00074D0FFE7BDF826001199898D88426DDA4C
:101EC000FFE7BDF826001199C8851198C06B80699D
:101ED000202858D0FFE7FFE7FFE71198006850E897
:101EE000030F20F480700890FFE7089911980268AA
:101EF00042E803100028F0D1FFE7FFE7FFE7FFE724
:101F00001198006850E8050F20F001000790FFE7E6
:101F100007991198026842E805100028F0D1FFE700
:101F2000FFE7FFE7FFE71198006850E8050F20F092
:101F300040000690FFE706991198026842E80510F4
:101F40000028F0D1FFE7FFE71199202081F8420037
:101F5000119900200863FFE7FFE71198006850E837
:101F6000030F20F010000590FFE705991198026813
:101F700042E803100028F0D1FFE7FFE71198C06B9B
:101F8000FEF7CAF9FFE71199022048631198818D85
:101F9000C28D891A89B2FFF75FFEFFE779E01199D8
:101FA000888DC98D401AADF812001198C08D002897
:101FB0004ED0FFE7BDF81200002849D0FFE7FFE749
:101FC000FFE71198006850E8030F20F49070039029
:101FD000FFE703991198026842E803100028F0D146
:101FE000FFE7FFE7FFE7FFE71198006850E8050FFC
:101FF00020F001000290FFE702991198026842E880
:1020000005100028F0D1FFE7FFE71199202081F8A3
:102010004200119900200863FFE7FFE7119800686C
:1020200050E8030F20F010000190FFE7019911988C
:10203000026842E803100028F0D1FFE7FFE711999A
:10204000022048631198BDF81210FFF705FEFFE764
:102050001FE09DF84000000600280AD5FFE79DF824
:102060003C000006002804D5FFE7119800F0C4FCEE
:102070000FE09DF84000400600280AD5FFE79DF8D4
:102080003C004006002804D5FFE7119800F08CFBC7
:10209000FFE712B080BD000080B582B000900098CC
:1020A00020B9FFE701208DF8070040E00098806923
:1020B00008B1FFE700E0FFE7009890F8410040B961
:1020C000FFE70099002081F84000009800F034F804
:1020D000FFE70099242081F8410000980168C86852
:1020E00020F40050C860009800F028FC00980168B7
:1020F000086920F49040086100980168486920F060
:102100002A00486100980168C86840F40050C8601F
:10211000009900204864009A202182F84110009A1A
:1021200082F84210009948638DF80700FFE79DF898
:10213000070002B080BD000080B58CB00B9000207D
:102140000A900990089007900B98006843F60001E8
:10215000C4F20101884243D1FFE7FFE741F21800D2
:10216000C4F20200016841F480410160006800F49B
:10217000804006900698FFE7FFE741F21800C4F29E
:102180000200016841F004010160006800F00400F1
:1021900005900598FFE74FF4007007900220089023
:1021A00003200A9040F60000C4F20100019007A944
:1021B0000291FEF79DFA019802994FF4806207920E
:1021C0000022039208920992FEF792FA039A2520C0
:1021D00004901146FEF73EFD0498FEF731FDFFE73F
:1021E0000CB080BD81B0009001B0704781B000900C
:1021F00001B07047FFE7FEE780B594B00020139070
:10220000129011901090FFE741F21800C4F2020002
:10221000016841F010010160006800F010000F90AB
:102220000F98FFE7FFE741F21800C4F202000168CF
:1022300041F020010160006800F020000E900E982F
:10224000FFE7FFE741F21800C4F20200016841F025
:1022500004010160006800F004000D900D98FFE794
:10226000FFE741F21800C4F20200016841F00801E2
:102270000160006800F008000C900C98FFE740F641
:102280000000C4F2010004901E2100910022069279
:10229000FEF7EEFB069A40F60040C4F201000A90F9
:1022A0004FF6FF71FEF7E4FB069A41F20000C4F21C
:1022B000010001904FF4F8610291FEF7D9FB0498F8
:1022C0004FF48071089101220992FEF7D1FB099A1F
:1022D00041F20040C4F20100079004210591FEF78D
:1022E000C7FB04980699099A109211910221039153
:1022F000129110A90B91FEF7FBF9009B0498099A23
:102300000B9910931192129203221392FEF7F0F997
:102310000198069B099A0B994FF0200CCDF840C00C
:1023200011931292FEF7E4F9039A069BDDF824C09C
:102330000A980B994FF6FF6ECDF840E0CDF844C0F7
:1023400012931392FEF7D4F90198039A069BDDF8D5
:1023500024C00B99DDF808E0CDF840E0CDF844C08A
:1023600012931392FEF7C4F9039A0498DDF820C083
:10237000099B0B99CDF840C0119312921392FEF76E
:10238000B7F90498069B099A0B994FF4004CCDF8C5
:1023900040C011931292FEF7ABF9DDF814C0069B12
:1023A0000798099A0B99CDF840C011921293139295
:1023B000FEF79EF9089B099A0A980B9910931192BF
:1023C00012921392FEF794F914B080BD80B582B0DA
:1023D00000210191009140F2B800C2F2000041F2E8
:1023E0000042C4F20002026047224260816040F273
:1023F000E731C16080218161FFF7F2F918B1FFE791
:10240000FDF782FFFFE700200090019040F2B80046
:10241000C2F200006946FFF763F918B1FFE7FDF764
:1024200073FFFFE702B080BD80B582B040F20010BC
:10243000C2F20000019043F60001C4F20101016004
:102440004FF4E131416000218160C16001610C22E3
:1024500042618161C161FFF71FFE18B1FFE7FDF71F
:1024600053FFFFE702B080BDFFE7FEE7FFE7FEE7AF
:1024700088B0079006910592079800F00700049035
:102480000498C0F10700052803D3FFE7042001905A
:1024900004E00498C0F107000190FFE70198039061
:1024A00004980430062803D8FFE70020009003E0DA
:1024B000049803380090FFE700980290069803996B
:1024C000012202FA01F101390840029B9840059966
:1024D0009A40013A1140084308B070477047000025
:1024E00082B00190019840F20001C2F20001096837
:1024F000C90844F6D352C1F26202A1FB0221890944
:1025000048430090FFE700BFFFE70098411E00919D
:102510000028F8D1FFE702B07047000070470000C4
:102520007047000080B590B006A800902821FDF704
:1025300083FE009800230593049303930293019371
:10254000012206924FF48031079108930A920222E9
:102550000D920E914FF4E0110F91FEF77BFD18B133
:10256000FFE7FDF7D1FEFFE70F2001900221029166
:10257000002003904FF480620492059001A8FEF7BA
:102580008BFB18B1FFE7FDF7BFFEFFE710B080BD82
:102590007047000080B540F27000C2F20000FFF703
:1025A00003FA80BD80B540F2B800C2F20000FFF728
:1025B000FBF980BD83B00290019102980068009001
:1025C000029842F60041C4F20101884225D0FFE79B
:1025D000029843F20041C4F2010188421DD0FFE796
:1025E0000298B0F1804F18D0FFE7029840F2004106
:1025F000C4F20001884210D0FFE7029840F60001C3
:10260000C4F20001884208D0FFE7029840F600417A
:10261000C4F2000188420AD1FFE7009820F0700060
:10262000009001984168009808430090FFE70298E5
:1026300042F60041C4F20101884225D0FFE702982A
:1026400043F20041C4F2010188421DD0FFE7029825
:10265000B0F1804F18D0FFE7029840F20041C4F279
:102660000001884210D0FFE7029840F60001C4F252
:102670000001884208D0FFE7029840F60041C4F20A
:10268000000188420AD1FFE7009820F440700090D2
:102690000198C168009808430090FFE7009820F077
:1026A00080000199496908430090009802990860E8
:1026B000019880680299C86201980068029988624E
:1026C000029842F60041C4F20101884208D0FFE7B7
:1026D000029843F20041C4F20101884205D1FFE7AC
:1026E0000198006902990863FFE702990120486197
:1026F00003B0704780B582B001900198406A0090A5
:1027000000990020C8850099C8840098FFF7AAFAAC
:1027100002B080BD84B00390FFE7FFE70398006834
:1027200050E8030F20F490700290FFE7029903989D
:10273000026842E803100028F0D1FFE7FFE7FFE757
:10274000FFE70398006850E8050F20F001000190B2
:10275000FFE701990398026842E805100028F0D1CC
:10276000FFE7FFE70398006B012814D1FFE7FFE7BD
:10277000FFE70398006850E8030F20F01000009076
:10278000FFE700990398026842E803100028F0D19F
:10279000FFE7FFE7FFE70399202081F84200039954
:1027A0000020086304B0704780B582B001900198A2
:1027B0000168C86820F04000C8600199202081F8B5
:1027C00041000198FFF712FD002002B080BD00001B
:1027D00080B586B00490049890F84200222840F01A
:1027E000A480FFE704988068B0F5805F15D1FFE70B
:1027F0000498006988B9FFE7002003900498806A74
:1028000002900498006840686FF35F200299088086
:102810000499886A0230886225E00498806A0390EF
:102820000020029004988068B0F5805F08D0FFE730
:102830000498806850B9FFE70498006930B9FFE751
:102840000498006840680399087007E004980068DD
:10285000406800F07F0003990870FFE70499886AD8
:1028600001308862FFE70499C88D0138C8850004EB
:10287000002856D1FFE704980168C86820F02000BE
:10288000C86004980168C86820F48070C860049823
:102890000168486920F0010048610499202081F80E
:1028A00042000499002048630498006B012830D14D
:1028B000FFE7049900200863FFE7FFE7049800683A
:1028C00050E8030F20F010000190FFE701990498F1
:1028D000026842E803100028F0D1FFE7FFE7049800
:1028E00000680068C00600280ED5FFE7FFE700205B
:1028F00000900498006800680090049800684068A0
:1029000000900098FFE7FFE70498818DFFF7A4F996
:1029100003E00498FFF766FCFFE700208DF817003E
:1029200007E000208DF8170003E002208DF8170063
:10293000FFE79DF8170006B080BD000080B584B0A9
:10294000039003980068006920F44050039A1168CE
:10295000D26810430861039988680A69496910437D
:102960000843029003980068C06841F20C618843F4
:102970000299084303990968C86003980068406990
:1029800020F44070039A11689269104348610398DB
:10299000006843F60001C4F20101884204D1FFE758
:1029A000FEF7E8FA019003E0FEF7D2FA0190FFE7A4
:1029B000019819214843039A116852689200B0FBAC
:1029C000F2FC48F21F52C5F2EB12ACFB0230430995
:1029D000642003FB10CC322000EB0C10A0FB0202A1
:1029E000F02000EA521000EB0310C2F3431210442F
:1029F000886004B080BD000083B00190019890F819
:102A0000410021283AD1FFE701988068B0F5805F46
:102A100013D1FFE70198006978B9FFE70198006AD0
:102A20000090009800886FF35F2001990968486062
:102A30000199086A0230086208E0019A106A411C94
:102A400011620078019909684860FFE70199C88C14
:102A50000138C884000468B9FFE701980168C868B4
:102A600020F08000C86001980168C86840F040000C
:102A7000C860FFE700208DF80B0003E002208DF80E
:102A80000B00FFE79DF80B0003B0704780B540F2E4
:102A90000010C2F20000FFF7E9F880BDFFE7FEE793
:102AA00081B08DF803009DF9030000280ED4FFE7E4
:102AB0009DF9031001F01F02012090404A094EF2D7
:102AC0000011CEF2000141F82200FFE701B070478B
:102AD0004EF60C50CEF200000068C0F302207047A2
:102AE00082B08DF8070000919DF9070000280AD4F4
:102AF000FFE7009800019DF907104EF20042CEF268
:102B0000000288540BE0009800019DF8071001F0C6
:102B10000F014EF61452CEF200028854FFE702B0C5
:102B20007047000083B00290029800F00700009008
:102B30004EF60C51CEF200010868019001984FF654
:102B4000FF02104001900198009A40EA0220002202
:102B5000C0F2FA52104301900198086003B0704728
:102B600080B582B000200190FDF7AEFFFFF7DAFCE0
:102B7000FFF742FBFFF758FCFFF728FC00F002F8D4
:102B8000FFE7FEE780B5FFE740F60000C4F2010072
:102B90004FF48071FDF758FF4FF49670FDF786FDF6
:102BA000F2E7000000000000000001020304060735
:102BB00008090000000001020304020304050607DF
:102BC00008090A0B0C0D0E0F10100102F02B000863
:102BD000000000201000000094010008002C0008F4
:102BE0001000002040090000B401000800000000AF
:102BF0000024F400010000001000000000000000AC
:0400000508000131BD
:00000001FF
